:1000000029C1000043C1000041C100003FC1000000
:100010003DC100003BC1000039C1000037C10000F4
:1000200035C1000033C1000031C100000C942D1017
:100030002DC100002BC1000029C10000FAC700003B
:1000400025C1000023C1000021C10000B3C1000090
:100050001DC100001BC1000019C1000017C1000034
:1000600015C1000013C1000011C100000FC1000044
:100070000DC1000012011001FF000010EB0304216C
:10008000000201020301090220000101008032097F
:1000900004000002FF0000000705820240000A077A
:1000A00005020240000A0403090418034400650025
:1000B00061006E002000430061006D006500720069
:1000C000610000002E034C00550046004100200056
:1000D00041005600520049005300500020004D00DE
:1000E0006B0049004900200043006C006F006E0067
:1000F000650000001C03300030003000300041007B
:100100003000300031003200380032003500350058
:1001100000000400040004000500050006000600BD
:100120000600070007000700080009000900090091
:100130000A000A000B000C000C000D000E000F005E
:100140000F0010001100120013001400150016001B
:100150001700180019001B001C001E001F002100C2
:1001600022002400260028002A002C002E00310046
:100170003300360039003B003E0041004500480096
:100180004C004F00540058005C00610065006A009C
:10019000700075007B00810088008E0096009D0035
:1001A000A500AD00B500BE00C800D200DC00E7002D
:1001B000F200FE000A011801250134014301530138
:1001C0006401760188019B01AF01C501DB01F301E8
:1001D0000B02250240025C027A029902BA02DC029A
:1001E000000326034E037703A303D1030104320463
:1001F00067049F04DA04150555059705E1052806EF
:100200007606C7061F077A07D7073308A308090928
:100210007A09F609700AF70A7C0B0D0CAD0C480D33
:10022000F20D920E410F0110D510971198128713FD
:1002300078147B158C16A417D018091A501BA21C11
:100240000B1E8C1F1921AF226F243726404000411E
:100250000142430011241FBECFEFD2E0DEBFCDBF6D
:1002600011E0A0E0B1E0E4E4F6E202C005900D92F6
:10027000A234B107D9F711E0A2E4B1E001C01D92A8
:10028000A535B107E1F74ED00C942013B9CE85B156
:100290008F71806C85B9089585B18F71806485B93F
:1002A00008958EB3843089F4B9D182E08093E90057
:1002B0008091E80082FF09C085B18F71806C85B99B
:1002C0008CD085B18F71806885B9089582E060E82F
:1002D00042E30E94880F80FD02C090E401C090E8D4
:1002E00085B18F71982B95B9089584B7877F84BFA6
:1002F00088E10FB6F89480936000109260000FBE02
:1003000080E090E020E80FB6F8942093610080939D
:1003100061000FBE84B1806E84B985B18F7185B9DB
:100320000C941E10E2DF72D185B18F71806485B9A3
:100330007894489902C090E201C090E085B18F7D29
:10034000982B95B9AEDF0E94F412F3CFDA01923008
:1003500049F0933061F0913029F5E4E7F0E022E1D3
:1003600030E024C0E6E8F0E020E230E01FC0813059
:1003700059F0813028F0823059F0833099F40CC064
:10038000E6EAF0E084910BC0EAEAF0E0849107C06D
:10039000E4ECF0E0849103C0E4EFF0E08491282FD6
:1003A00030E004C0E0E0F0E020E030E0ED93FC93CA
:1003B000C901089578941F920F920FB60F921124DD
:1003C0008F938AB5882319F08AB581508ABD8F91A1
:1003D0000F900FBE0F901F901895FF920F931F93D1
:1003E0001091F10084E68ABD85E085BD143109F4E1
:1003F000CBC0153110F51A3009F4ADC01B3068F4CC
:10040000143038F4123008F054C0113009F0D4C060
:1004100033C0163009F0D0C078C0113109F4AFC034
:10042000123120F4103109F0C7C0A7C0123109F40D
:10043000AEC0133109F0C0C0A4C0193109F4ACC07A
:100440001A3168F4163109F49FC0163108F499C0C6
:10045000173109F4A1C0183109F0AEC09AC01D319E
:1004600009F49DC01D3108F494C0103509F49BC0F7
:10047000113509F0A1C095C08091E8008B77809379
:10048000E80082E08093E9008091EC008160809335
:10049000EC001093F1001092F1008AE08093F100DB
:1004A00080E091E06AE070E040E050E00E94B91224
:1004B00099C00091F100123011F0FF2402C0F090B9
:1004C000F1008091E8008B778093E80082E08093D0
:1004D000E9008091EC0081608093EC001093F100C2
:1004E000802FB5D0123041F481FF0DC01092F10081
:1004F000802F6F2DB4D076C080FF05C01092F10020
:10050000802F9DD06DC080EC6BC084E491E064E0EE
:1005100070E040E050E00E9443128091E8008B7749
:100520008093E80082E08093E9008091EC00816094
:100530008093EC008091440190914501A091460187
:10054000B0914701B7FF03C081E08093430186E08B
:100550008093F1000FC08091E8008B778093E800D2
:1005600082E08093E9008091EC0081608093EC0050
:100570001093F1001092F10035C0BED438C088D479
:1005800036C0812FF2D233C0812F41D230C0F0D19A
:100590002EC0812FE5D02BC0812F9CD028C04BD1FD
:1005A00026C07ED624C0ADD722C08091E8008B77CC
:1005B0008093E8000E94BA0F8091F2008034A9F382
:1005C0008091E8008B778093E80082E08093E900D7
:1005D0008091EC0081608093EC001093F10089EC35
:1005E0008093F1008091E8008E778093E80015BC3D
:1005F0000E94BA0F82E08093E9008091EC008E7F28
:100600008093EC001F910F91FF9008958DE487BDBA
:1006100082E084BD80936E0035D037C50895982F51
:10062000EBE0F1E08081981741F081E0E632F807D5
:1006300011F03396F7CFE0E0F0E0CF010895EFDF5F
:10064000FC01009711F480E0089582810895E7DFAE
:10065000FC01009711F480E00895818108950F93C3
:100660001F93182F062FDBDFFC01009741F0028358
:100670001E3929F480E090E0602F0E940E131F9134
:100680000F9108950F931F938EE9C9DF8C0180E0CD
:1006900090E00E940613F80182831F910F91089544
:1006A000282F40ED57E003C0CA010197F1F722233C
:1006B00021F08AB521508823B9F70895982F8091A9
:1006C0002901882329F09EBD0DB407FEFDCF0895B2
:1006D000892F19C5DF92EF92FF920F931F93DF933B
:1006E000CF9300D000D0CDB7DEB7D82E8E010F5FEC
:1006F0001F4FC80164E070E040E050E00E947E12AD
:100700008091E8008B778093E80082E08093E90095
:100710008091EC0081608093EC0085E0E82EF12C64
:10072000EC0EFD1EF80181918F01C8DF0E151F052B
:10073000C9F7D092F1001092F1001092F10080916F
:10074000E8008E778093E8000F900F900F900F9045
:10075000CF91DF911F910F91FF90EF90DF9008955F
:10076000BF92CF92DF92EF92FF920F931F93DF938E
:10077000CF93CDB7DEB729970FB6F894DEBF0FBE83
:10078000CDBFB82ECE01059665E070E040E050E0A8
:100790000E947E128091E8008B778093E80082E0CF
:1007A0008093E9008091EC0081608093EC008E01E1
:1007B0000A5F1F4F7E010894E11CF11C9AE0C92ECC
:1007C000D12CCC0EDD1EF801908180912901882367
:1007D00031F09EBD0DB407FEFDCF8EB502C0892F4E
:1007E00092D4F70181937F010F5F1F4F0C151D05F8
:1007F00051F7B092F1001092F1008D81FE01E80FE7
:10080000F11D80818093F1001092F1008091E80049
:100810008E778093E80029960FB6F894DEBF0FBE5E
:10082000CDBFCF91DF911F910F91FF90EF90DF909F
:10083000CF90BF900895EF92FF920F931F93DF9395
:10084000CF93CDB7DEB7C250D1400FB6F894DEBF1C
:100850000FBECDBFCE01019663E070E040E050E0F6
:100860000E947E1234E0E32EF12CEC0EFD1E698115
:10087000C70170E040E050E00E947E128091E800E5
:100880008B778093E80082E08093E9008091EC0010
:1008900081608093EC008DE18093F1001092F10073
:1008A00000E00BC08981081728F4F701E00FF11D63
:1008B000808101C080E002DF0F5F8B81081790F319
:1008C00010E024E0E22EF12CEC0EFD1E2CC08981FC
:1008D00090912901081778F4F701E00FF11D80814C
:1008E000992331F08EBD0DB407FEFDCF8EB501C04A
:1008F0000AD40F5F0AC0992331F01EBC0DB407FE65
:10090000FDCF8EB502C080E0FED38093F1008091D0
:10091000E80085FD07C08091E8008E778093E800AD
:100920000E94BA0F1F5F8A81181788F21092F10097
:100930009091E8008091E8008E778093E80095FD23
:1009400009C00E94BA0F8091E8008E778093E8007A
:100950000E94BA0FCE5FDE4F0FB6F894DEBF0FBE17
:10096000CDBFCF91DF911F910F91FF90EF90089530
:10097000EF92FF920F931F93DF93CF9300D000D09D
:1009800000D0CDB7DEB7CE01019666E070E040E062
:1009900050E00E947E128091E8008B778093E800FF
:1009A00082E08093E9008091EC0081608093EC000C
:1009B0008E010D5F1F4F47E0E42EF12CEC0EFD1E63
:1009C000F80181918F017ADE0E151F05C9F78A8122
:1009D000882321F4898164DE90E002C0BFD3982F80
:1009E00082E18093F1009093F1008091E8008E778E
:1009F0008093E80026960FB6F894DEBF0FBECDBFF9
:100A0000CF91DF911F910F91FF90EF900895DF92AA
:100A1000EF92FF920F931F93DF93CF9300D00F922B
:100A2000CDB7DEB7F82ECE01019663E070E040E06E
:100A300050E00E947E1299818A8189839A838091F5
:100A4000E8008B778093E80082E08093E900809152
:100A5000EC0081608093EC00F092F1001092F100C4
:100A600000E010E068E0D62EEE24E39459C08091B7
:100A70004301882319F090D3109243018B811EDE2D
:100A80008091440190914501A0914601B0914701A8
:100A9000892F9A2FAB2FBB2711DE809144010EDEE8
:100AA00080912901882331F01EBC0DB407FEFDCFD3
:100AB0008EB502C080E027D38093F1008091E800DA
:100AC00085FD07C08091E8008E778093E8000E9442
:100AD000BA0F24E1F21619F48B818D258B8300FD6A
:100AE00003C086E1F816D1F480914401909145014C
:100AF000A0914601B09147010196A11DB11D8093BF
:100B0000440190934501A0934601B093470126E12B
:100B1000F21621F0892B11F4E09243010F5F1F4F71
:100B200089819A810817190708F4A1CF1092F10062
:100B30009091E8008091E8008E778093E80095FD21
:100B400009C00E94BA0F8091E8008E778093E80078
:100B50000E94BA0F0F900F900F90CF91DF911F91CD
:100B60000F91FF90EF90DF9008954F925F926F92F8
:100B70007F928F929F92AF92BF92CF92DF92EF922D
:100B8000FF920F931F93DF93CF93CDB7DEB7C9507A
:100B9000D1400FB6F894DEBF0FBECDBFB82ECE0148
:100BA000019669E070E040E050E00E947E126A81A8
:100BB000798131E06130730798F08091E8008B779C
:100BC0008093E80082E08093E9008091EC008160EE
:100BD0008093EC00B092F10080EC8093F1003BC177
:100BE0007A836983CE010A9640E050E00E947E122B
:100BF0008091E8008B778093E80082E08093E900A1
:100C00008091EC0081608093EC0083E1B81611F4D0
:100C1000588401C059848B8180FD0FC066247724DD
:100C20000AE0C02ED12CCC0EDD1EEE24FF2420E0E5
:100C300018E0412EAA24A39404C17090440180902E
:100C4000450180914301882319F0A6D210924301F7
:100C5000CC24DD24BAE0EB2EF12CEC0EFD1E00E0DE
:100C600010E0A8E06A2E4DC0992493949022F701D9
:100C7000A0808D8123DD8091440190914501A09158
:100C80004601B0914701892F9A2FAB2FBB2716DD64
:100C90008091440113DD8A2D11DDF3E1BF1619F4B3
:100CA0008D8186258D83C114D10471F4A51461F062
:100CB000992031F033E1B31619F48F8188608F8366
:100CC000C0904401D0904501992019F485E1B816EF
:100CD00099F48091440190914501A0914601B09111
:100CE00047010196A11DB11D8093440190934501D8
:100CF000A0934601B09347010894E11CF11C0F5FDB
:100D00001F4F89819A810817190708F4ADCF8B818D
:100D100087FD02C020E09BC08E81D0DC882DCEDC18
:100D2000872DCCDC80E0CADCC114D10431F48B8186
:100D300085FF03C08F7D80618B838B81B601452D3C
:100D40002C810F8132D2282FE3E1BE1609F07FC03B
:100D50008091440190914501892B09F078C081E090
:100D60008093430174C0E1E08E2E912C8E209F2051
:100D7000F601008180914301882319F00DD2109271
:100D800043018D819BDC8091440190914501A091AC
:100D90004601B0914701892F9A2FAB2FBB278EDCDC
:100DA000809144018BDC802F89DCF3E1BF1619F4BC
:100DB0008D8184258D831B81051571F0811491042B
:100DC00031F033E1B31619F48F8188608F8360901E
:100DD00044017090450106C013FD04C0812F8B7F34
:100DE00082608B838B81B301452D2C810F81DDD1F6
:100DF000282F882361F5892819F485E1B816D1F4E4
:100E00008091440190914501A0914601B091470124
:100E10000196A11DB11D8093440190934501A093BB
:100E20004601B0934701E5E1BE1621F0892B11F48C
:100E3000A09243010894C11CD11C1B830894E11C9F
:100E4000F11C89819A81E816F90608F48CCFB092DA
:100E5000F1002093F1008091E8008E778093E80004
:100E6000C75FDE4F0FB6F894DEBF0FBECDBFCF9188
:100E7000DF911F910F91FF90EF90DF90CF90BF9087
:100E8000AF909F908F907F906F905F904F9008955C
:100E90000F931F93DF93CF9300D0CDB7DEB7CE0172
:100EA000019662E070E040E050E00E947E1208EEA1
:100EB00010E0F80180818B77808382E08093E900E5
:100EC000ECEEF0E08081816080838981E9DB80E065
:100ED000AFD1EDD08A81E4DBE1EFF0E081E1808306
:100EE0001082F80180818E7780830F900F90CF91D0
:100EF000DF911F910F9108956F927F928F929F9231
:100F0000AF92BF92DF92EF92FF920F931F93DF9306
:100F1000CF93CDB7DEB72F970FB6F894DEBF0FBED5
:100F2000CDBFCE0105966BE070E040E050E00E943E
:100F30007E128091E8008B778093E80082E08093B6
:100F4000E9008091EC0081608093EC0010924401F4
:100F50001092450110924601109247018F81A0DB4B
:100F600073D120ECD22E9CE0692E712C6C0E7D1E6C
:100F70004E010894811C911C80E1A82EB12CAC0E6E
:100F8000BD1E30C09150988781E052D18E8188DBA0
:100F900083017401898584DBF801908180912901A6
:100FA000882331F09EBD0DB407FEFDCF8EB502C083
:100FB000892FA9D0F70181937F010F5F1F4F0A1579
:100FC0001B0541F78B85882361F0FE01E80FF11DB9
:100FD00090818A85981729F080E02AD18E8160DB84
:100FE00001C0DD249885992331F0F0ECDF1619F467
:100FF0008AB5882339F680E18093F100D092F10020
:101000008091E8008E778093E8002F960FB6F894D1
:10101000DEBF0FBECDBFCF91DF911F910F91FF902B
:10102000EF90DF90BF90AF909F908F907F906F90E8
:1010300008951F920F920FB60F9211248F93199952
:1010400008C08091490187FF02C02A9A17C02A98D8
:1010500015C080914901880F809349018091480112
:101060008150809348018F5F11F4109281001B9B87
:1010700005C080914901816080934901199A8F913F
:101080000F900FBE0F901F9018953E9A10926F0010
:1010900010928500109284001092890010928800AE
:1010A00080E48093800089E080938100089580919E
:1010B0002901882349F084B1897F84B985B1867F6D
:1010C00085B91CBC1DBC089584B1897F84B985B1E4
:1010D000867F85B9DACF92E090936F0010928500F9
:1010E00010928400E82FF0E0EE0FFF1FEC5FFE4F40
:1010F000859194919093890080938800109280004C
:101100001092810008958093490188E080934801FE
:101110008091490180FF02C02A9A01C02A9810924A
:101120008500109284008AE08093810080914801BC
:10113000882319F08AB58823C9F71092810080911D
:1011400049010895982F80912901882329F09EBD97
:101150000DB407FEFDCF0895892FD5CF80EFF2DFC4
:1011600080E0F0DF80E0EEDF80912901882331F01C
:101170001EBC0DB407FEFDCF8EB502C080E0C3DFFC
:1011800080FF03C08AB5882349F78AB5882311F404
:1011900081E8089580E008958DE4D4DF80E0D2DF17
:1011A00080914601CFDF80E0CDCFEF92FF920F9389
:1011B0001F937B01142F90E08E778830910581F189
:1011C0008930910534F48230910559F0049751F536
:1011D0000BC08032910541F08034910509F14097B0
:1011E00009F5822F5DDA1EC0802FACDF8F2DAADFBC
:1011F0008E2DA8DF80912901882331F01EBC0DB40B
:1012000007FEFDCF8EB502C080E07DDF811719F4A7
:101210008AB5882349F78AB5882321F480E803C07A
:101220009DDF01C080E01F910F91FF90EF90089526
:10123000882339F0249A8EE902DA882319F42C9A4B
:10124000089524982C98089588E9F9D9E82F8730D3
:10125000E8F481E080932901F0E0E45BFD4FE49144
:101260009E2F906184B1866084B984B1867F84B9F1
:1012700085B1896085B9E065ECBD96FF03C08DB589
:10128000816002C08DB58E7F8DBD089510922901B9
:1012900084B1866084B985B1896085B98E2F1BCFF2
:1012A000DF93CF930F92CDB7DEB7CE01019661E009
:1012B00070E040E050E00E947E128091E8008B7761
:1012C0008093E80082E08093E9008091EC008160E7
:1012D0008093EC0099819093420181E58093F10025
:1012E000913011F480EC01C080E08093F100809196
:1012F000E8008E778093E8000F90CF91DF910895FA
:10130000AF92BF92CF92DF92EF92FF920F931F9313
:10131000DF93CF93CDB7DEB7C850D1400FB6F89466
:10132000DEBF0FBECDBFCE01019668E070E040E0A9
:1013300050E00E947E123B812C819D818E818B83A7
:101340009C832D833E837F8168856F8378878E01A0
:10135000075F1F4FC80140E050E00E947E1280915D
:10136000E8008B778093E80082E08093E900809129
:10137000EC0081608093EC0080914201882379F534
:1013800089818330A9F0843028F4813069F082307B
:10139000A9F40CC0853031F0853008F44AC086309D
:1013A00069F40AC088E046C044E209C04CE207C0C4
:1013B00045E383E366E305C04AE101C04EE283E210
:1013C00066E2EB80FC800D811E81AF80B8842A81AB
:1013D00099E0C92ED12CCC0EDD1EDFD206C04F8184
:1013E00058858B819C81B801E6D4882311F090E068
:1013F00001C093E080E58093F10084E08093F100E8
:101400009093F1008091E8008E778093E800C85FA8
:10141000DE4F0FB6F894DEBF0FBECDBFCF91DF9188
:101420001F910F91FF90EF90DF90CF90BF90AF9002
:1014300008958CE44B815C816D817E81298514D374
:10144000D4CFDF93CF93CDB7DEB7C750D1400FB61F
:10145000F894DEBF0FBECDBFCE01019667E070E00D
:1014600040E050E00E947E129A81EB817C816D8188
:101470006A837B83EC839D833E812F812E833F8310
:101480008091E8008B778093E80082E08093E90008
:101490008091EC0081608093EC0080914201AE016C
:1014A000485F5F4F882319F48E2F00D304C0CB010F
:1014B000BA01A901B8D4882311F493E001C090E0E7
:1014C00080E58093F10085E08093F1009093F10036
:1014D000992341F46E817F81CE01089640E050E06F
:1014E0000E94B9128091E8008E778093E800C95F6E
:1014F000DE4F0FB6F894DEBF0FBECDBFCF91DF91A8
:101500000895DF93CF93CDB7DEB729970FB6F89440
:10151000DEBF0FBECDBF9091F100943009F4ADC095
:10152000953048F49230A1F1933008F04DC09130DD
:1015300009F036C10AC0963009F4A3C0963008F409
:101540009EC0973009F02CC1DEC08091E8008B77F7
:101550008093E80082E08093E9008091EC00816054
:101560008093EC0080914201882311F496D305C04A
:10157000823011F090E002C091D4982F80E58093E2
:10158000F10081E08093F10089278093F10003C18D
:101590008091E8008B778093E8009093E900809138
:1015A000EC0081608093EC0080914201882311F46B
:1015B0006AD301C06DD480E58093F10082E080930E
:1015C000F1001092F100E7C0CE01059665E070E0F1
:1015D00040E050E093D7588549857E816F814E83E6
:1015E0005F83688779878091E8008B778093E80034
:1015F00082E08093E9008091EC0081608093EC00B0
:10160000809142019D81882339F59430C1F0953055
:1016100038F4923071F0933080F49130D1F40BC0F3
:10162000963089F0963068F0973079F0983089F4E8
:101630000EC080E20FC080E40DC088E60BC080E3DE
:1016400009C082E207C08AE205C082E303C088E1E4
:1016500001C080E06FD207C0913011F084E101C079
:1016600080E1BA018DD3882311F090E001C093E0AE
:1016700080E58093F10083E08AC042DE91C0E1DE24
:101680008FC0CE01059661E070E040E050E036D7B3
:101690008091E8008B778093E80082E08093E900F6
:1016A0008091EC0081608093EC008091420188235E
:1016B00011F091E013C08D81813021F0823021F44E
:1016C00089E303C088E301C088E7BE016F5F7F4FF5
:1016D0009ED2882311F493E001C090E080E58093CE
:1016E000F10086E08093F1009093F100992309F0D6
:1016F00052C089819A81AB81BC819D0144275527C5
:101700002093F10044C08091F1008230E1F08330F9
:1017100018F4813029F406C08330F1F0843009F1E7
:1017200091E024C03091F1002091F1009091F100FE
:101730008091F10080932A0190932B0120932C013A
:1017400030932D0112C09091F1008091F1008093AF
:101750002E0190932F0109C08091F10080933001F8
:1017600004C08091F1008093310190E08091E80005
:101770008B778093E80082E08093E9008091EC0011
:1017800081608093EC0080E58093F10087E0809396
:10179000F1009093F1008091E8008E778093E8004B
:1017A00029960FB6F894DEBF0FBECDBFCF91DF9163
:1017B00008954D99FECF4D9BFECF5B9A539A809131
:1017C000C9008F7E8093C9008091C9008860809392
:1017D000C90081E080934A01089580914A018823DD
:1017E00009F4E7DF80E04D99FECF4D9BFECF8F5F80
:1017F0008C30C9F7089510924A01249A2C9882E0FF
:101800008A95F1F78AB188628AB952988FE090E0A0
:101810009093CD008093CC0088E08093C9008FE640
:101820008093CA00DADFD9CF10924A018AB1886268
:101830008AB952985B9A82E08A95F1F78FE090E03E
:101840009093CD008093CC0088E08093C9008FE610
:101850008093CA00C2DFC1CF1F93182F80914A0125
:10186000882309F4A6DF8091C80085FFFCCF809112
:10187000C80080648093C8001093CE001F91089523
:101880008091C80086FFFCCF8091C800806480935F
:10189000C8008091C900877F8093C9008091C900EA
:1018A00080618093C90053985B9810924A01089513
:1018B00080914A01882309F0E3DF8091C80087FD09
:1018C00003C08AB58823C9F78091CE000895D8DF78
:1018D000E8ECF0E08081806C80831092C900109267
:1018E000CA008AB1877D8AB98BB1837D8BB9249870
:1018F0002C980895C5DF80EC8093C8001092C90031
:101900001092CA008AB1877D8AB98BB1837D8BB969
:1019100008950F931F93DF93CF9300D000D0CDB7DE
:10192000DEB769837A838B839C838E010F5F1F4FA1
:10193000862F92DFF80181818FDFF80182818CDFB1
:10194000F801838189DF0F900F900F900F90CF9156
:10195000DF911F910F91089590E0A0E0B0E02091F9
:101960002A0130912B0140912C0150912D01822BA5
:10197000932BA42BB52BBC01CD01CBCF8BE66CDF19
:101980008FE0EADF80E268DF93DF982F8AB5882353
:1019900019F097FDF7CF81E008957F928F929F9283
:1019A000AF92BF92CF92DF92EF92FF920F931F936D
:1019B000CF93DF93882E962E742EE601D22E20FF31
:1019C00010C0DCDF882309F440C08CE445DF8AE0E6
:1019D000C3DF892D41DF8CE43FDF8BE0BDDF81E099
:1019E0003BDFA114B104E9F0C9DF882371F18CE475
:1019F00033DF8AE0B1DF882D2FDF8BE62DDFC801D2
:101A0000B70187DF80EA28DF8A2D815025DF84E651
:101A100023DF899121DF0894A108B108A114B10442
:101A2000C1F7D1FE10C0AADF882379F08CE414DF5F
:101A30008AE092DF872D10DF8CE40EDFC801B7014A
:101A400068DF80E009DF81E001C080E0DF91CF91B5
:101A50001F910F91FF90EF90DF90CF90BF90AF90CC
:101A60009F908F907F900895CF92DF92EF92FF9298
:101A70000F931F93D82E7A018B01C22E7FDF88230C
:101A800071F08CE4E9DE8AE067DF8D2DE5DE8CE421
:101A9000E3DEC801B7013DDF8C2DDEDE81E01F9162
:101AA0000F91FF90EF90DF90CF900895CF92DF924B
:101AB000EF92FF920F931F93CF93DF937B018C01E3
:101AC0006A01E9015BDF882309F18CE4C5DE8AE065
:101AD00043DF83E4C1DE8BE6BFDEC801B70119DF57
:101AE00080EABADE9E012150822FB6DE84E2B4DEA7
:101AF00004C0DEDEF60181936F01209721F08AB5E4
:101B000021978823B1F78AB5811181E0DF91CF91C8
:101B10001F910F91FF90EF90DF90CF90089580E894
:101B20009BDEC6DE982F8AB5882319F091FFF7CF88
:101B300081E00895CF92DF92EF92FF921F93182FCA
:101B40006A017B011BDF882309F45AC0103431F489
:101B50008CE482DE8AE000DF80E439C0103309F0D3
:101B60003DC08CE479DE8AE0F7DE86E375DE8CE446
:101B700073DE8BE0F1DE81E06FDE00DF882309F4A5
:101B80003FC08CE469DE8AE0E7DE83E365DE8BE656
:101B900063DEC701B601BDDE80EA5EDE80912E0104
:101BA00081505ADE84E658DE10E003C080E054DE47
:101BB0001F5F212F30E080912E0190912F01281777
:101BC0003907A0F38CE448DE8AE0C6DE80E344DE19
:101BD0008CE442DE8BE0C0DE81E00CC08CE43CDEB5
:101BE0008AE0BADE812F38DE8CE436DEC701B6012A
:101BF00090DE80E031DE93DF882319F081E001C0C0
:101C000080E01F91FF90EF90DF90CF900895EF92CA
:101C1000FF920F931F93082FF62EE72EAFDE882337
:101C200061F18CE419DE8AE097DE802F15DE8CE40A
:101C300013DE8BE091DE81E00FDE71DF8823E9F0B7
:101C40009DDE8823D1F08BE607DE84E085DE80EA26
:101C500003DE82E001DE84E2FFDD0F2D1E2D28DE93
:101C6000F801808325DEF801818322DEF80182837A
:101C70008AB5882319F081E001C080E01F910F919F
:101C8000FF90EF9008954BDF81ECE6DD80E0E4DD2E
:101C900081ECE2DD80E0E0DD2DCEEF92FF920F934C
:101CA0001F93DF93CF93CDB7DEB728970FB6F89485
:101CB000DEBF0FBECDBFB8DD81ECCEDD89E5CCDD6A
:101CC00082ECCADD87E0C8DD80EEC6DD8E01085FEC
:101CD0001F4F7E010894E11CF11CD701E2E3F1E003
:101CE00088E001900D928150E1F7F8018081B4DD28
:101CF000015010400C171D0781F711DF28960FB611
:101D0000F894DEBF0FBECDBFCF91DF911F910F9131
:101D1000FF90EF900895282F8F70806930E0207336
:101D20003070220F331F822B97CDDF93CF9300D0DB
:101D3000CDB7DEB79A83898388E68EDD89818CDD15
:101D400089E68ADDFE013196818186DD0F900F9054
:101D5000CF91DF91089520913101822F8F708061A2
:101D600030E020733070220F331F822B75DDA0DD31
:101D7000982F8AB5882319F097FDEDCF81E008955B
:101D80001F93CF93DF93182FEB01E5DF882379F0C2
:101D900080913001C0DF812F5FDDCE018160C5DF22
:101DA00080E65ADD80E058DDD6DF811181E0DF91E9
:101DB000CF911F910895EF92FF920F931F93CF93AE
:101DC000DF937C018B01EA01C6DF882321F1C0FF8C
:101DD00006C0F801EC0FFD1F8FEF808321968091E4
:101DE000300199DF8DE138DDC7019FDF10C0B3DF1F
:101DF000882389F084E630DDF80180812DDD84E6DA
:101E00002BDDF80181810E5F1F4F26DD2297209781
:101E100071F781E001C080E0DF91CF911F910F91B8
:101E2000FF90EF900895EF92FF920F931F93CF933F
:101E3000DF938C017B01EA018EDF8823B9F080916A
:101E4000300169DF80E008DDC8016FDF06C084E291
:101E500003DD2EDDF70181937F01209721F08AB504
:101E600021978823A1F78AB5811181E0DF91CF9175
:101E70001F910F91FF90EF90089580E8EDDC18DD41
:101E8000982F8AB5882319F091FFF7CF81E0089544
:101E9000F4DF80ECE1DC80E0DFDC19CDEF92FF9233
:101EA0000F931F93DF93CF93CDB7DEB728970FB66D
:101EB000F894DEBF0FBECDBF9EDC82ECCDDC87E0A8
:101EC000CBDC80EEC9DC8E01085F1F4F7E010894D9
:101ED000E11CF11CD701EAE3F1E088E001900D92EA
:101EE0008150E1F7F8018081B7DC015010400C17F8
:101EF0001D0781F7C2DF28960FB6F894DEBF0FBE2C
:101F0000CDBFCF91DF911F910F91FF90EF9008957A
:101F10008093E9008091EB0081608093EB00109248
:101F2000ED006093EC004093ED008091EE00881F7F
:101F30008827881F089580914D0188238CF403C061
:101F40008EB38823B1F08091E80082FFF9CF8091B1
:101F5000E8008B778093E80008958EB3882349F0DA
:101F60008091E80080FFF9CF8091E8008E77809320
:101F7000E80008954091E4005091E50024E6809146
:101F8000EC0080FF05C08091E80080FF05C021C003
:101F90008091E80082FD1DC08EB3882311F482E099
:101FA0000895853011F483E008958091EB0085FF5A
:101FB00002C081E008958091E4009091E5008417CB
:101FC0009507E9F2222311F484E008952150AC0131
:101FD000D6CF80E008953BD03DD08091D800982F97
:101FE0009F779093D80080688093D80019BC89B5FA
:101FF000826089BD09B400FEFDCF8091D8008F7D3D
:102000008093D8001EBA10924B0180E060E042E15C
:102010007FDF8091E1008E7F8093E1008091E2007C
:1020200081608093E2008091E20088608093E2000A
:102030008091E0008E7F8093E0000895E3E6F0E079
:1020400080818E7F808381E080934C01C4CF109289
:10205000E20008951092E10008951F920F920FB6CA
:102060000F9211242F933F934F935F936F937F931E
:102070008F939F93AF93BF93EF93FF938091E10072
:1020800080FF1CC08091E20080FF18C08091E100B9
:102090008E7F8093E1008091E2008E7F8093E2004A
:1020A0008091E20080618093E2008091D80080629C
:1020B0008093D80019BC1EBA0E944C018091E100A7
:1020C00084FF2DC08091E20084FF29C019BC89B52E
:1020D000826089BD09B400FEFDCF8091D8008F7D5C
:1020E0008093D8008091E1008F7E8093E100809101
:1020F000E2008F7E8093E2008091E2008160809315
:10210000E20080914B01882331F48091E30087FD48
:1021100002C081E001C084E08EBB0E944701809133
:10212000E10083FF21C08091E20083FF1DC0809108
:10213000E100877F8093E10082E08EBB10924B012B
:102140008091E1008E7F8093E1008091E2008E7F9C
:102150008093E2008091E20080618093E20080E061
:1021600060E042E1D5DE31D18091E10082FF0AC01A
:102170008091E20082FF06C08091E1008B7F809316
:10218000E10023D1FF91EF91BF91AF919F918F918A
:102190007F916F915F914F913F912F910F900FBE63
:1021A0000F901F9018950F931F93DF93CF9300D03C
:1021B000CDB7DEB7EDE4F1E08091F100819381E0ED
:1021C000E535F807C9F701D18091E80083FFE8C041
:1021D00080914D0190914E01953009F46DC096307B
:1021E00040F4913081F1913070F0933009F0D8C013
:1021F0002AC0983009F4A6C0993009F4B5C09630C9
:1022000009F0CEC07EC0803809F4CAC0823809F017
:10221000C7C08091510187708093E9008091EB00E5
:102220001092E9002091E800277F2093E80090E0D9
:1022300025E0969587952A95E1F781708093F100C6
:102240001092F1008AC0882319F0823009F0A8C0EA
:102250008F71823009F0A4C080914F01882331F53D
:1022600020915101277009F49BC02093E9008091CF
:10227000EB0080FF1BC0933021F48091EB00806263
:1022800013C08091EB0080618093EB0081E090E0CF
:1022900002C0880F991F2A95E2F78093EA001092F6
:1022A000EA008091EB0088608093EB001092E900D7
:1022B0008091E800877F54C0882309F071C0109195
:1022C0004F011F770FB7F8948091E800877F8093C4
:1022D000E80031DE8091E80080FFFCCF112311F48B
:1022E00082E001C083E08EBB8091E3008078182BF0
:1022F0001093E3008091E30080688093E3000FBFB8
:102300004FC08058823008F04BC080914F019091AF
:10231000500160915101AE014F5F5F4F0E94A601D5
:10232000BC01009709F43CC08091E800877F80934E
:10233000E80089819A814AD08091E8008B77809368
:10234000E8002EC0803861F58091E800877F809397
:10235000E80080914B018093F1008091E8008E7736
:102360008093E800E8DD1CC08823D1F490914F01F0
:102370009230B0F48091E800877F8093E8009093DA
:102380004B01D9DD80914B01882331F48091E3002A
:1023900087FD02C081E001C084E08EBB0E9466011F
:1023A0008091E80083FF0AC08091EB0080628093F7
:1023B000EB008091E800877F8093E8000F900F90FA
:1023C000CF91DF911F910F91089508959C01409145
:1023D0005301509154014617570710F460E03EC076
:1023E0006115710511F0AB01F9CF8091E8008E778E
:1023F0008093E80040E050E0F1CF8EB3882309F4E9
:102400003EC0853009F43DC08091E80083FF02C0E2
:1024100081E008958091E80082FD2BC08091E80062
:1024200080FF1CC08091F20090E009C0F9012F5F8D
:102430003F4FE491E093F100415050400196411527
:10244000510519F08031910588F360E0409709F457
:1024500061E08091E8008E778093E8004115510596
:1024600061F6662351F605C08EB3882341F08530AE
:1024700041F08091E80082FFF7CF80E0089582E08C
:10248000089583E00895DF92EF92FF920F931F93D8
:10249000CF93DF938C01EB017A016CDDD82E88237A
:1024A00021F521970C0F1D1F21961DC08091E8007A
:1024B00085FD12C08091E8008B778093E800E114DD
:1024C000F10431F0F7010995813011F485E00EC077
:1024D00051DD882341F00AC08091F100F80180832A
:1024E000015010402197209709F78D2DDF91CF9152
:1024F0001F910F91FF90EF90DF900895DF92EF9280
:10250000FF920F931F93CF93DF93182F092FEB01A7
:102510007A0130DDD82E882319F5812F902F9C0168
:1025200089011CC08091E80085FD12C08091E800FF
:102530008B778093E800E114F10431F0F7010995FD
:10254000813011F485E00DC015DD882339F009C014
:102550008091F100F80181938F012197209711F765
:102560008D2DDF91CF911F910F91FF90EF90DF9014
:102570000895DF92EF92FF920F931F93CF93DF9313
:10258000182F092FEB017A01F5DCD82E882319F5D5
:10259000812F902F9C0189011CC08091E80085FD4E
:1025A00012C08091E8008E778093E800E114F10476
:1025B00031F0F7010995813011F485E00DC0DADCC6
:1025C000882339F009C0F80181918F018093F100CF
:1025D0002197209711F78D2DDF91CF911F910F91AA
:1025E000FF90EF90DF9008951F938EB3882361F0E2
:1025F0001091E9001092E9008091E80083FF01C08A
:10260000D2DD17701093E9001F910895F999FECF5C
:1026100092BD81BDF89A992780B50895262FF99922
:10262000FECF92BD81BDF89A019700B4021639F031
:102630001FBA20BD0FB6F894FA9AF99A0FBE089502
:04264000F894FFCF3C
:102644004156524953505F4D4B3200800100810185
:102654000090010091010192010D9401329803064A
:102664009E0201A10100A4020001C001000120009A
:1026740033321289AB45CDD888FF1289AB45CDD80A
:0226840088FFCD
:00000001FF
